:020000040800F2
:1000000000000120C5020008CB020008CF02000852
:1000100041030008450300088D03000800000000AC
:10002000000000000000000000000000D5030008F0
:10003000D903000800000000DD030008E103000808
:10004000F1030008F1030008F1030008F1030008C0
:10005000F1030008F1030008D9080008F5080008BA
:10006000F1030008F1030008F1030008F1030008A0
:10007000F1030008F1030008F1030008F103000890
:10008000F1030008F1030008F1030008000000007C
:10009000000000000000000000000000F103000864
:1000A000F1030008F1030008F1030008F103000860
:1000B000F1030008F1030008F1030008F103000850
:1000C000F1030008F1030008F1030008F103000840
:1000D000F1030008F1030008F1030008000000002C
:1000E000F1030008F1030008F1030008000000001C
:1000F000000000000000000000000000F103000804
:1001000000000000F1030008F1030008F1030008FB
:1001100000000000000000000000000000000000DF
:10012000F1030008F1030008F1030008F1030008DF
:10013000F1030008000000000000000000000000C3
:10014000000000000000000000000000F1030008B3
:10015000F1030008F1030008F1030008F1030008AF
:10016000F1030008F1030008000000000000000097
:10017000000000000000000000000000000000007F
:1001800000000000F1030008000000000000000073
:10019000F103000800B583B000F0BAF9384B394AD2
:1001A0001360394A1360394900E02146384B9942BF
:1001B0000BD20A684B6801F10C0488689842F4D9A4
:1001C0001168196004330432F8E72E4B1A68314B7A
:1001D0009A4200D0FEE72C4B1A682F4B9A42F9D175
:1001E000274B2E4A13602E4A13602E4B05E0002049
:1001F000106004329342FAD80B462B4A934204D241
:10020000194651F8082B5B68F4E7244B1B6813B9B7
:10021000234B1B6803B1FEE700F086F9694601A88D
:1002200000F022F9214C224BE41AA4100025AC4224
:1002300014DC204C204BE41AA4100025AC4213DC43
:100240000099019801F0DEFD05461C4C1C4BE41A98
:10025000A410002C0EDC284600F0E2F8144B53F8F2
:10026000253098470135E2E7134B53F8253098477E
:100270000135E3E7013C124B53F824309847E8E797
:10028000BABADECA000000208C000020F403000887
:100290000C040008785634123254769890000020EE
:1002A000300100200C0400081C0400081C04000895
:1002B0001C0400081C0400081C0400081C0400089E
:1002C0001C04000808B5FFF765FF00BEFEE71EF03E
:1002D000040F0CBFEFF30880EFF309807146414A29
:1002E00010472DE9F04182B004468846124B5E6B00
:1002F0009F6B9D6A1B6B13F0020F03D00E4BDB6AE2
:10030000002B0CDB0D4800F0B7F8CDF800803B4621
:1003100032462946204600F00BF900BEFEE74BF6B8
:10032000AB6100F07FF90028ECD0034B4FF00042A6
:10033000DA6202B0BDE8F08100ED00E014280008A8
:1003400000BEFEE71EF0040F0CBFEFF30880EFF3D2
:1003500009807146244A10472DE9F04182B00446D5
:100360008846084B5E6B9F6B9D6A074800F084F8D7
:10037000CDF800803B4632462946204600F0D8F8AA
:1003800000BEFEE700ED00E0242800081EF0040F88
:100390000CBFEFF30880EFF309807146134A104752
:1003A0002DE9F04182B004468846084B5E6B9F6B96
:1003B0009D6A074800F060F8CDF800803B46324661
:1003C0002946204600F0B4F800BEFEE700ED00E04C
:1003D0003028000800BEFEE700BEFEE700BEFEE7D4
:1003E00070470000E302000859030008A103000859
:0403F00000BEFEE766
:1003F40084280008000000209000002084280008C1
:1004040000000010000000109000002034010020C3
:080414000000001000000010C0
:10042000FEE7000008B503460C4A12685AB10B4AB1
:100430001068033323F003030344094A934206D8A8
:10044000064A136008BD054A06491160EFE701F04E
:10045000DDFC0C2303604FF0FF30F3E79400002035
:1004600000FC00203401002001230360014B0B60DD
:10047000704700BF040000200FB400B583B004AB88
:1004800053F8042B01938021064801F0F1FC002869
:1004900003DD0146034800F037F803B05DF804EBD4
:1004A00004B070479C0000202DE9F04385B004465D
:1004B0000F4643560BB10E461EE004252846214642
:1004C000ABBE0446384605B0BDE8F08314F9011B05
:1004D00004AA1A4402F8101C0133AB42F6D304AA52
:1004E0001344002203F8102C4FF00408E94640465C
:1004F0004946ABBE8046761B002EE3D03546102E13
:1005000028BF10250023E8E708B5FFF7CDFF08BD99
:1005100008B500F097F8024A024B9A6008BD00BF88
:100520000000000800ED00E008B500F0ABF808BDE1
:10053000F8B504460D4617461E462748FFF79CFFB0
:1005400021682648FFF798FF61682548FFF794FF68
:10055000A1682448FFF790FFE1682348FFF78CFF6C
:1005600021692248FFF788FF61692148FFF784FF6E
:10057000A1692048FFF780FFE1691F48FFF77CFF72
:100580001E48FFF779FF29461D48FFF775FF1D4CF0
:10059000E16A1D48FFF770FF216B1C48FFF76CFFF5
:1005A000E16B1B48FFF768FF15F0800F0AD115F4C7
:1005B000004F0CD11748FFF75FFF06991648FFF769
:1005C0005BFFF8BD39461548FFF756FFEFE73146A8
:1005D0001348FFF751FFEDE7F82600080827000849
:1005E000182700082827000838270008482700088F
:1005F000582700086827000878270008882700087F
:100600009427000800ED00E0A4270008B4270008A4
:10061000C4270008F4270008FC270008D427000896
:10062000E427000883691A888A4201D000207047B5
:100630000268033A012A03D802338361012070471C
:10064000002070470C4B1A6842F001021A6000212A
:1006500099601A6822F0847222F480321A60074A84
:100660005A601A6822F480221A60D960044B4FF055
:1006700000629A60704700BF0038024010300024CA
:1006800000ED00E0224B9B6803F00C03042B14D018
:10069000082B16D01BB11F4B1F4A1A6002E01D4BDE
:1006A0001D4A1A601A4B9B68C3F303131B4AD15CA3
:1006B000184A1368CB4013607047164B184A1A60EB
:1006C000F0E7134B5A685B6803F03F0312F4800FA6
:1006D00013D0134AB2FBF3F20D4B5B68C3F38813DC
:1006E00003FB02F30A4A5268C2F30142013252008C
:1006F000B3FBF2F3074A1360D4E7074AB2FBF3F205
:10070000034B5B68C3F3881303FB02F3EAE700BF04
:10071000003802400C0000200024F40040280008AB
:1007200000127A0008B5054B93E8070000F093F833
:10073000034B93E8070000F08EF808BD100000207E
:100740001C00002010B50446054A034607CA00F005
:100750005AF8044A234607CA00F055F810BD00BFF6
:10076000100000201C00002008B5054B93E807008E
:1007700000F00AF8034B93E8070000F005F808BD05
:10078000100000201C00002010B584B004AB03E969
:1007900007009DF8044000229DF80510204600F057
:1007A0006FFB01229DF80610204600F069FB04B0A3
:1007B00010BD10B584B004AB03E907009DF80440F8
:1007C00001229DF80510204600F05AFB00229DF8FA
:1007D0000610204600F054FB04B010BD10B584B0E4
:1007E00004AB03E907009DF8044000229DF80510C2
:1007F000204600F045FB00229DF80610204600F040
:100800003FFB04B010BD30B585B004AC04E907006F
:100810001D46012000F080FF9DF808402A46214631
:10082000012001F05DF9013C032C06D8DFE804F05B
:1008300002070B0F284601F0AFFA05B030BD28467D
:1008400001F0B0FAF9E7284601F0B2FAF5E72846D8
:1008500001F0B4FAF1E730B587B006AB03E9070061
:1008600000F0FCFB9DF80C502946002000F01AFC1B
:100870009DF80D100024019400942346012228467F
:1008800000F0C0FB9DF80E10019400942346012255
:10089000284600F0B7FB9DF80F30012B07D0022B44
:1008A00013D006AB13E90700FFF798FF04E006AB8F
:1008B00013E90700FFF77DFFBDF8143006AA12E91F
:1008C0000700FFF7A0FF07B030BD06AB13E9070034
:1008D000FFF75AFFF0E7000008B5044B1B68984784
:1008E000034A536943F00103536108BD1C01002012
:1008F000003C014008B5044B1B689847034A536904
:1009000043F00203536108BD20010020003C014078
:1009100000B583B0FFF706FF5020FFF713FFFFF786
:1009200023FF00F0EFFB002001900090034601221E
:100930000C2100F067FB04E000220C21104600F0BF
:100940009FFA00F031FC2828F6D801220C21002063
:1009500000F096FAF5E7000010B4012847D020B166
:10096000022800F0868010BC7047032AFBD8DFE81D
:1009700002F011022130614B18684900012202FA8D
:1009800001F420431860186811448A4020EA0202EA
:100990001A60E8E7594B18684900012202FA01F48D
:1009A00020EA04001860186811448A4020EA020214
:1009B0001A60D8E7514B18684900012202FA01F485
:1009C00020EA04001860186811448A4002431A6043
:1009D000C9E74A4B18684900012202FA01F4204392
:1009E0001860186811448A4002431A60BBE7032A62
:1009F000B9D8DFE802F011022130414B18684900F4
:100A0000012202FA01F420431860186811448A4058
:100A100020EA02021A60A6E7394B18684900012251
:100A200002FA01F420EA04001860186811448A40B0
:100A300020EA02021A6096E7314B18684900012249
:100A400002FA01F420EA04001860186811448A4090
:100A500002431A6087E72A4B18684900012202FA0C
:100A600001F420431860186811448A4002431A6058
:100A700079E7032A3FF677AFDFE802F01102213071
:100A8000204B18684900012202FA01F42043186043
:100A9000186811448A4020EA02021A6063E7194B81
:100AA00018684900012202FA01F420EA04001860E3
:100AB000186811448A4020EA02021A6053E7114B79
:100AC00018684900012202FA01F420EA04001860C3
:100AD000186811448A4002431A6044E7094B1868B9
:100AE0004900012202FA01F42043186018681144F9
:100AF00002FA01F10143196035E700BF000002402E
:100B0000000402400008024010B401284BD020B17C
:100B1000022800F08E8010BC7047042AFBD8DFE862
:100B200002F0030C1424330066480368012202FA21
:100B300001F123EA01010160EDE762480368012247
:100B400002FA01F119430160E5E75F4B18684900BB
:100B5000012202FA01F420EA040018601868114426
:100B60008A4020EA02021A60D5E7574B186849000C
:100B7000012202FA01F420431860186811448A40E7
:100B800020EA02021A60C6E74F4B186849000122AA
:100B900002FA01F420EA04001860186811448A403F
:100BA00002431A60B7E7042AB5D8DFE802F0030C65
:100BB0001424330045480368012202FA01F123EAB4
:100BC00001010160A7E741480368012202FA01F12F
:100BD000194301609FE73E4B18684900012202FA61
:100BE00001F420EA04001860186811448A4020EAE1
:100BF00002021A608FE7364B18684900012202FA98
:100C000001F420431860186811448A4020EA020267
:100C10001A6080E72E4B18684900012202FA01F49D
:100C200020EA04001860186811448A4002431A60E0
:100C300071E7042A3FF66FAFDFE802F0030C1424DB
:100C4000330024480368012202FA01F123EA01017A
:100C5000016060E71F480368012202FA01F11943AD
:100C6000016058E71C4B18684900012202FA01F4A0
:100C700020EA04001860186811448A4020EA020241
:100C80001A6048E7144B18684900012202FA01F47F
:100C900020431860186811448A4020EA02021A6052
:100CA00039E70D4B18684900012202FA01F420EAE5
:100CB000040018601868114402FA01F10143196038
:100CC00029E700BF040002400C0002400404024077
:100CD0000C040240040802400C08024010B4012831
:100CE00045D020B1022800F0828010BC7047032A52
:100CF000FBD8DFE802F0021221305E4B1868490091
:100D0000012202FA01F420EA040018601868114474
:100D10008A4020EA02021A60E7E7564B1868490049
:100D2000012202FA01F420431860186811448A4035
:100D300020EA02021A60D8E74E4B186849000122E7
:100D400002FA01F420EA04001860186811448A408D
:100D500002431A60C9E7474A10684900013101237C
:100D60008B401843106011680B431360BDE7032AE2
:100D7000BBD8DFE802F0021221303F4B186849006F
:100D8000012202FA01F420EA0400186018681144F4
:100D90008A4020EA02021A60A7E7374B1868490028
:100DA000012202FA01F420431860186811448A40B5
:100DB00020EA02021A6098E72F4B186849000122C6
:100DC00002FA01F420EA04001860186811448A400D
:100DD00002431A6089E7284A10684900013101235B
:100DE0008B401843106011680B4313607DE7032AA2
:100DF0003FF67BAFDFE802F0021221301F4B18688C
:100E00004900012202FA01F420EA0400186018687F
:100E100011448A4020EA02021A6066E7174B1868FC
:100E20004900012202FA01F42043186018681144B5
:100E30008A4020EA02021A6057E7104B18684900FE
:100E4000012202FA01F420EA040018601868114433
:100E50008A4002431A6048E7084A10684900013195
:100E6000012303FA01F1084310601368194311606C
:100E70003BE700BF080002400804024008080240A7
:100E800012B1012A21D0704701280CD010B10228DC
:100E900012D070471C480368012202FA01F123EACC
:100EA00001010160704719480368012202FA01F14B
:100EB00023EA01010160704715480368012202FA24
:100EC00001F123EA01010160704701280BD010B144
:100ED000022810D070470C480368012202FA01F181
:100EE00019430160704709480368012202FA01F1C1
:100EF00019430160704706480368012202FA01F1B4
:100F000019430160704700BF1400024014040240FE
:100F10001408024010B4072930D8012812D018B1A3
:100F200002281DD010BC7047304B18688C000F2170
:100F3000A14020EA01011960186802FA04F1014396
:100F40001960EFE72A4B1C6888000F21814024EAD2
:100F5000010119601C6802FA00F121431960E1E700
:100F6000244B186889000F248C4020EA0400186084
:100F7000186802FA01F101431960D3E7A1F10803EF
:100F8000DBB2072BCED8012820D080B10228C9D1EE
:100F9000194B1868083989000F248C4020EA040096
:100FA0001860186802FA01F101431960BAE7134B9F
:100FB0001868083989000F248C4020EA0400186062
:100FC000186802FA01F101431960ABE70C4B18688D
:100FD000083989000F248C4020EA04001860186842
:100FE00002FA01F1014319609CE700BF20000240B2
:100FF000200402402008024024080240240002404D
:10100000240402402DE9F0419DF81870022807D809
:101010000F2905D8032A03D8042B01D8032F01D99F
:10102000BDE8F081984616460D460446FFF794FC4D
:10103000424629462046FFF767FD012E08D0022EC2
:10104000EED19DF81C2029462046FFF763FFE7E715
:101050003A4629462046FFF741FEF0E70F4A13685B
:1010600043F0010313600E4B1A6822F001021A606C
:101070001A6822F002021A601A6822F010021A603E
:101080001A6822F020021A601A6822F040021A60E0
:101090001A6842F080021A60704700BF00380240B0
:1010A000083802401F2924D8032822D8DFE800F09E
:1010B000020A121A0F480368012202FA01F11943C9
:1010C000016070470C480368012202FA01F11943DC
:1010D0000160704709480368012202FA01F11943CF
:1010E0000160704706480368012202FA01F11943C2
:1010F00001607047303802403438024040380240C6
:101100004438024030B583B0FFF7A8FF00210846FD
:10111000FFF7C8FF04210320FFF7C4FF0724019451
:10112000002500952B46022209212846FFF76AFF79
:10113000019400952B4602220A212846FFF762FF00
:10114000184C204600F040FE5A21204600F04DFE8B
:101150000621204600F049FE0321204600F045FE0E
:101160002946204600F041FE2946204600F03DFE7B
:101170000B21204600F039FE5A21204600F035FEB2
:101180000521204600F031FE0521204600F02DFE0D
:101190000221204600F029FE1121204600F025FE04
:1011A00003B030BD0010014010B584B0224C5A216C
:1011B000204600F01AFE0421204600F016FE04210D
:1011C000204600F012FE0C21204600F00EFE2E20DC
:1011D00002E0194800F00FFE2028FAD1002408E0B0
:1011E000154800F008FE04AB234403F80C0C01344E
:1011F000E4B2032CF4D904AB1C44002004F80C0C1A
:10120000034601E00133DBB2032B12D804AA1A44CF
:1012100012F80C2C2E2AF5D00D2AF3D00A2AF1D080
:1012200000EB8000410088B2104480B2303880B2B8
:10123000E8E704B010BD00BF001001400D4B1A6A72
:1012400022F001021A621A6A59689A6922F073023E
:1012500042F0600221F4007159609A6158630022E3
:101260001A629A6942F008029A619A6942F004028D
:101270009A6170470000014010B40F4B1A6A22F0C7
:1012800010021A62196A5C689A6922F44C5242F49C
:10129000C04221F0E00124F440645C609A619863EC
:1012A00019629A6942F400629A619A6942F4806212
:1012B0009A6110BC704700BF0000014010B40F4B92
:1012C0001A6A22F480721A62196A5C68DA6922F07A
:1012D000330242F0600221F4606124F440545C6007
:1012E000DA61D8631962DA6942F00802DA61DA6910
:1012F00042F00402DA6110BC704700BF00000140F8
:1013000010B40F4B1A6A22F480521A62196A5C6890
:10131000DA6922F44C5242F4C04221F4005124F420
:1013200080445C60DA6118641962DA6942F4006230
:10133000DA61DA6942F48062DA6110BC704700BF9A
:10134000000001404FF080431A6A22F001021A6245
:101350001A6A59689A6922F0730242F06002596071
:101360009A61586300221A629A6942F008029A61EF
:101370009A6942F004029A61704710B44FF08043BA
:101380001A6A22F010021A62196A5C689A6922F4D9
:101390004C5242F4C04221F0A0015C609A61986313
:1013A00019629A6942F400629A619A6942F4806211
:1013B0009A6110BC704710B44FF080431A6A22F44F
:1013C00080721A62196A5C68DA6922F0330242F0AC
:1013D000600221F420615C60DA61D8631962DA6925
:1013E00042F00802DA61DA6942F00402DA6110BC04
:1013F000704710B44FF080431A6A22F480521A6288
:10140000196A5C68DA6922F44C5242F4C04221F451
:1014100000515C60DA6118641962DA6942F40062B2
:10142000DA61DA6942F48062DA6110BC7047000068
:101430000C4B1A6A22F001021A621A6A59689A69F8
:1014400022F0730242F0600259609A6158630022F0
:101450001A629A6942F008029A619A6942F004029B
:101460009A6170470004004010B40E4B1A6A22F0D3
:1014700010021A62196A5C689A6922F44C5242F4AA
:10148000C04221F0A0015C609A61986319629A6978
:1014900042F400629A619A6942F480629A6110BCD7
:1014A000704700BF0004004010B40E4B1A6A22F4CB
:1014B00080721A62196A5C68DA6922F0330242F0BB
:1014C000600221F420615C60DA61D8631962DA6934
:1014D00042F00802DA61DA6942F00402DA6110BC13
:1014E000704700BF0004004010B40E4B1A6A22F48B
:1014F00080521A62196A5C68DA6922F44C5242F42A
:10150000C04221F400515C60DA6118641962DA6942
:1015100042F40062DA61DA6942F48062DA6110BC96
:10152000704700BF000400400C4B1A6A22F0010211
:101530001A621A6A59689A6922F0730242F06002CC
:1015400059609A61586300221A629A6942F008024F
:101550009A619A6942F004029A617047000800405B
:1015600010B40E4B1A6A22F010021A62196A5C68F3
:101570009A6922F44C5242F4C04221F0A0015C600E
:101580009A61986319629A6942F400629A619A6951
:1015900042F480629A6110BC704700BF00080040AE
:1015A00010B40E4B1A6A22F480721A62196A5C68CF
:1015B000DA6922F0330242F0600221F420615C60BB
:1015C000DA61D8631962DA6942F00802DA61DA692D
:1015D00042F00402DA6110BC704700BF000800400E
:1015E00010B40E4B1A6A22F480521A62196A5C68AF
:1015F000DA6922F44C5242F4C04221F400515C609A
:10160000DA6118641962DA6942F40062DA61DA694F
:1016100042F48062DA6110BC704700BF00080040ED
:101620000C4B1A6A22F001021A621A6A59689A6906
:1016300022F0730242F0600259609A6158630022FE
:101640001A629A6942F008029A619A6942F00402A9
:101650009A617047000C004010B40E4B1A6A22F0D9
:1016600010021A62196A5C689A6922F44C5242F4B8
:10167000C04221F0A0015C609A61986319629A6986
:1016800042F400629A619A6942F480629A6110BCE5
:10169000704700BF000C004010B40E4B1A6A22F4D1
:1016A00080721A62196A5C68DA6922F0330242F0C9
:1016B000600221F420615C60DA61D8631962DA6942
:1016C00042F00802DA61DA6942F00402DA6110BC21
:1016D000704700BF000C004010B40E4B1A6A22F491
:1016E00080521A62196A5C68DA6922F44C5242F438
:1016F000C04221F400515C60DA6118641962DA6951
:1017000042F40062DA61DA6942F48062DA6110BCA4
:10171000704700BF000C004030B583B00446FFF7AF
:101720009DFC00210846FFF7BDFC01210020FFF7CA
:10173000B9FC601E042848D8DFE810F00500490015
:10174000A9000901700100210320FFF7ABFC01256E
:101750000195002400942346022208212046FFF729
:1017600051FC2A4608212046FFF7D4FB019500943E
:10177000234602220B212046FFF744FC2A460B2178
:101780002046FFF7C7FBA24B1A6822F010021A602E
:101790001A6822F020021A601A6822F040021A60C9
:1017A0001A6822F480721A601A6822F400721A60B1
:1017B00008229A621A6842F080021A606422DA6291
:1017C0000F221A635A692A435A6103B030BD0021BF
:1017D0000220FFF767FC01250195002400942346B1
:1017E000022205212046FFF70DFC2A46052120464E
:1017F000FFF790FB0195009423460222032128461F
:10180000FFF700FC2A4603212846FFF783FB0195DA
:101810000094234602220A212846FFF7F3FB2A46BA
:101820000A212846FFF776FB019500942346022201
:1018300003212046FFF7E6FB2A4603212046FFF757
:1018400069FB4FF080439A6842F080029A601A6800
:1018500022F010021A601A6822F020021A601A6838
:1018600022F040021A601A6822F480721A601A6824
:1018700022F400721A6008229A621A6842F080020A
:101880001A600F22DA625A692A435A619DE70121E0
:101890000220FFF707FC022501950024009423464F
:1018A0002A4606212046FFF7ADFB2A4606212046A0
:1018B000FFF730FB0195009423462A460721204676
:1018C000FFF7A0FB2A4607212046FFF723FB0195DF
:1018D000009423462A4621460120FFF793FB2A461F
:1018E00021460120FFF716FB0195009423462A4666
:1018F00001210846FFF786FB2A4601210846FFF72B
:1019000009FB444B9A6842F080029A601A6822F000
:1019100010021A601A6822F020021A601A6822F077
:1019200040021A601A6822F480721A601A6822F45F
:1019300000721A6008229A621A6842F080021A60E5
:101940000F22DA625A6942F001025A613DE7022130
:101950000846FFF7A7FB02240194002500952B46BB
:10196000224606210120FFF74DFB224606210120D9
:10197000FFF7D0FA019400952B462246072101205B
:10198000FFF740FB224607210120FFF7C3FA01942D
:1019900000952B46224608210120FFF733FB224603
:1019A00008210120FFF7B6FA019400952B46224644
:1019B00009210120FFF726FB224609210120FFF71C
:1019C000A9FA154B9A6842F080029A601A6822F0D0
:1019D00010021A601A6822F020021A601A6822F0B7
:1019E00040021A601A6822F480721A601A6822F49F
:1019F00000721A6008229A621A6842F080021A6025
:101A00000F22DA625A6942F001025A61DDE600BF34
:101A100000000140000400400008004003210220B3
:101A2000FFF740FB022501950024009423462A4637
:101A300021462046FFF7E6FA2A4621462046FFF7D0
:101A400069FA0195009423462A4601212046FFF7B2
:101A5000D9FA2A4601212046FFF75CFA0195009445
:101A600023462A4629462046FFF7CCFA2A4629462D
:101A70002046FFF74FFA0195009423462A4603219A
:101A80002046FFF7BFFA2A4603212046FFF742FA15
:101A9000124B9A6842F080029A601A6822F0100293
:101AA0001A601A6822F020021A601A6822F04002B6
:101AB0001A601A6822F480721A601A6822F400729E
:101AC0001A6008229A621A6842F080021A600F2295
:101AD000DA625A6942F001025A6176E6000C00406F
:101AE00008B5012821D002286CD0032800F0AA8074
:101AF000042800F0E48005281FD1012900F01C8192
:101B0000022900F02681032900F03081042914D134
:101B10001046FFF7E1FD9C4B1A6A42F480521A62AC
:101B20001A6842F001021A6007E0012906D0022972
:101B300015D0032924D0042933D008BD1046FFF75F
:101B40007DFB924B1A6A42F001021A625A6C42F40F
:101B500000425A641A6842F001021A60EDE710462A
:101B6000FFF78AFB894B1A6A42F010021A625A6C1C
:101B700042F400425A641A6842F001021A60DCE73B
:101B80001046FFF79BFB814B1A6A42F480721A627F
:101B90005A6C42F400425A641A6842F001021A6018
:101BA000CBE71046FFF7ACFB784B1A6A42F4805241
:101BB0001A625A6C42F400425A641A6842F00102F6
:101BC0001A60BAE7012913D002291FD003292BD0AC
:101BD0000429B2D11046FFF70CFC4FF080431A6A7B
:101BE00042F480521A621A6842F001021A60A4E7B5
:101BF0001046FFF7A7FB4FF080431A6A42F001023C
:101C00001A621A6842F001021A6096E71046FFF75E
:101C1000B4FB4FF080431A6A42F010021A621A684D
:101C200042F001021A6088E71046FFF7C4FB4FF04C
:101C300080431A6A42F480721A621A6842F0010202
:101C40001A607AE7012913D002291ED0032929D06E
:101C500004297FF472AF1046FFF746FC4C4B1A6A1A
:101C600042F480521A621A6842F001021A6064E774
:101C70001046FFF7DDFB464B1A6A42F001021A627A
:101C80001A6842F001021A6057E71046FFF7ECFBB2
:101C90003F4B1A6A42F010021A621A6842F00102BF
:101CA0001A604AE71046FFF7FFFB394B1A6A42F405
:101CB00080721A621A6842F001021A603DE7012937
:101CC00013D002291ED0032929D004297FF435AF6F
:101CD0001046FFF785FC2F4B1A6A42F480521A62B5
:101CE0001A6842F001021A6027E71046FFF71CFC51
:101CF000284B1A6A42F001021A621A6842F0010285
:101D00001A601AE71046FFF72BFC224B1A6A42F0C2
:101D100010021A621A6842F001021A600DE71046BA
:101D2000FFF73EFC1B4B1A6A42F480721A621A6873
:101D300042F001021A6000E71046FFF771FC124BF7
:101D40001A6A42F001021A621A6842F001021A602D
:101D5000F3E61046FFF780FC0B4B1A6A42F01002C4
:101D60001A621A6842F001021A60E6E61046FFF7AE
:101D700093FC054B1A6A42F480721A621A6842F0A8
:101D800001021A60D9E600BF000C004000000140CB
:101D90000004004000080040014B5863704700BF3A
:101DA00000000140014B9863704700BF00000140F4
:101DB000014BD863704700BF00000140014B18641D
:101DC000704700BF0000014045238360C36843F0B3
:101DD0000403C360C36843F00803C360C36843F4EB
:101DE0000053C3600023036070474160036813F031
:101DF000400FFBD07047036813F0200FFBD0406802
:101E0000C0B2704708B5FEF783FDFEE7014B1868C6
:101E1000704700BF2800002030B5141E05469BB057
:101E2000184605DA8B232B604FF0FF301BB030BD16
:101E30004FF40273ADF80C3014BF04F1FF332346A6
:101E4000029305934FF6FF7300910491ADF80E30A5
:101E500002461E9B6946284600F072F8431CBCBF30
:101E60008B232B60002CE1D0009B00221A70DDE751
:101E700007B5009313460A46014603480068FFF77A
:101E8000CBFF03B05DF804FB280000202DE9F047EC
:101E90008E689E4282460C469046994637D88A897B
:101EA00012F4906F31D0256809696F1A65690223B1
:101EB00005EB450595FBF3F509F101033B449D4214
:101EC00038BF1D46530530D5294600F07BFB06463A
:101ED00050B90C23CAF80030A38943F04003A38112
:101EE0004FF0FF30BDE8F0873A46216900F0F8FA7C
:101EF000A38923F4906343F08003A3812661656185
:101F00003E44ED1B2660A5604E464E4500D94E4628
:101F100032464146206800F0EEFAA3689B1BA3609E
:101F200023681E4426600020DCE72A4600F0A4FB5C
:101F300006460028E2D12169504600F0F5FAC8E7CC
:101F40002DE9F04F9DB0804603938B891D060C460A
:101F500016460FD50B696BB9402100F033FB2060AA
:101F6000206128B90C23C8F800304FF0FF30C7E0DB
:101F7000402363610023099320238DF82930302307
:101F80008DF82A304FF0010B37463D4615F8013BDE
:101F90000BB1252B3ED1B7EB060A0BD05346324688
:101FA00021464046FFF772FF013000F0A480099BF4
:101FB000534409933B78002B00F09D8000234FF0A1
:101FC000FF32CDE90523049307938DF853301A931C
:101FD0002F46052217F8011B4F4800F031FA049BE9
:101FE000D0B9D90644BF20228DF853201A0744BF28
:101FF0002B228DF853202A782A2A15D0079A2F46AB
:1020000000200A25394611F8013B303B092B4DD9F8
:10201000B8B10FE02F46B8E73F4A801A0BFA00F03C
:10202000184304903D46D3E7039A111D12680391AB
:10203000002A01DB079204E0524243F002030792B8
:1020400004933B782E2B0CD17B782A2B33D1039B26
:102050001A1D1B680392002BB8BF4FF0FF330237E5
:1020600005932E4D39780322284600F0E9F938B15E
:102070004023401B03FA00F0049B03430137049301
:10208000397827488DF8281006227E1C00F0D8F9F0
:10209000002838D0234B13BB039B073323F00703DF
:1020A00008330393099B4B4409936DE705FB023208
:1020B00001200F46A6E700230137059319460A259C
:1020C000384610F8012B303A092A03D9002BC8D022
:1020D0000591C6E705FB012101230746F0E703ABA5
:1020E00000932246104B04A94046AFF30080B0F1A4
:1020F000FF3F8146D6D1A3895B063FF536AF0998ED
:102100001DB0BDE8F08F03AB00932246064B04A937
:10211000404600F081F8EAE75028000856280008F9
:102120005A280008000000008D1E00082DE9F04725
:1021300091461F468A680B69DDF820809342B8BF3C
:102140001346C9F8003091F8432006460C4612B1F8
:102150000133C9F800302368990642BFD9F800302E
:102160000233C9F80030256815F0060507D104F1DF
:10217000190AE368D9F800209B1AAB4228DC94F8CE
:1021800043302268003318BF012392062DD404F196
:10219000430239463046C047013020D02368E56805
:1021A000D9F8002003F00603042B08BFAD1AA3687A
:1021B00022690CBF25EAE57500259342C4BF9B1A2E
:1021C000ED184FF000091A344D451AD1002008E0EF
:1021D0000123524639463046C047013003D14FF003
:1021E000FF30BDE8F0870135C3E7E1185A1C302005
:1021F00081F84300224494F8451082F843100233DA
:10220000C5E70123224639463046C0470130E6D0B3
:1022100009F10109D8E700002DE9F04301F1430C71
:102220000C46097E85B06E291746064698460C9ADC
:1022300000F0B38022D8632936D00AD8002900F0F4
:10224000B980582900F0838004F1420584F84210D7
:1022500032E0642901D06929F6D1206813680506A7
:1022600003F104012AD51B681160002B03DA2D222B
:102270005B4284F843206F480A2239E0732900F05A
:102280009D8008D86F2920D07029DDD1236843F0C4
:102290002003236003E0752917D07829D4D178234F
:1022A00084F84530644855E01368191D1B681160B7
:1022B00004F1420584F8423001238CE01B68116070
:1022C00010F0400F18BF1BB2CFE713682568181D28
:1022D0001060280601D51B6802E06806FBD51B8844
:1022E00054486F2914BF0A220822002184F84310A1
:1022F0006568A560002DC0F29580216821F0040179
:102300002160002B3DD1002D40F08E806546082ACB
:102310000BD12368DB0708D5236962689A42DEBFC8
:10232000302305F8013C05F1FF35ACEB05032361D3
:10233000CDF800803B4603AA21463046FFF7F6FE63
:1023400001304DD14FF0FF3005B0BDE8F083394882
:1023500084F84510136821681D1D1B6815600A0666
:102360000BD5CA0744BF41F0200121601BB9226888
:1023700022F0200222601022B7E74D0648BF9BB230
:10238000EFE76546B3FBF2F102FB1133C35C05F8DE
:10239000013D0B460029F5D1B9E71368256861694D
:1023A000181D106028061B6801D5196002E06A0636
:1023B000FBD51980002323616546B9E71368191D11
:1023C00011601D6862680021284600F039F808B1E4
:1023D000401B606063682361002384F84330A7E7F3
:1023E00023692A4639463046C0470130AAD02368BF
:1023F0009B0713D4E068039B9842B8BF1846A3E735
:1024000001234A4639463046C04701309AD001354B
:10241000E368039A9B1AAB42F2DCEBE7002504F178
:102420001909F5E7002BACD1037884F8423004F1A8
:1024300042056CE7612800087228000800000000CF
:1024400001F0FF01102A2BDB10F0070F08D010F865
:10245000013B013A8B422DD010F0070F42B3F6D169
:10246000F0B441EA012141EA014122F007047FF082
:1024700000070023F0E80256083C85EA010586EAD9
:10248000010685FA47F5A3FA87F586FA47F6A5FA15
:1024900087F68EB9EED1F0BC01F0FF0102F0070221
:1024A00032B110F8013B013A83EA010313B1F8D1CC
:1024B0000020704701387047002D06BF35460338AD
:1024C000073815F0010F07D1013015F4807F02BFE6
:1024D000013015F4C03F0130F0BC0138704700BF37
:1024E00010B5431E0A44914200D110BD11F8014BB2
:1024F00003F8014FF7E7884210B501EB020307D854
:10250000421E99420AD011F8014B02F8014FF8E738
:102510008342F5D98118D21AD34200D110BD13F8E5
:10252000014D01F8014DF7E738B50546002945D0C2
:1025300051F8043C0C1F002BB8BFE41800F0D2F88F
:102540001F4A1368104633B9636014602846BDE81B
:10255000384000F0C8B8A3420CD9216862189342F1
:1025600004BF1A685B68636004BF5218226004608D
:10257000ECE713465A680AB1A242FAD9196858180A
:10258000A0420BD120680144581882421960DDD165
:10259000106852685A6001441960D7E702D90C23C9
:1025A0002B60D3E7206821188A4204BF1168526863
:1025B000626004BF091821605C60C7E738BD00BFD6
:1025C0002401002070B5CD1C25F0030508350C2D25
:1025D00038BF0C25002D064601DBA94203D90C2388
:1025E0003360002070BD00F07DF8214A1468214658
:1025F00091B9204C23681BB9304600F063F8206085
:102600002946304600F05EF8431C24D10C23336089
:10261000304600F068F8E4E70B685B1B18D40B2B1E
:102620000FD90B60CD50CC18304600F05CF804F1A7
:102630000B00231D20F00700C31AD3D05A42E250EA
:10264000D0E78C424B6816BF636013600C46EBE723
:102650000C464968CCE7C41C24F00304A04205D012
:10266000211A304600F02EF80130CFD02560DBE78C
:102670002401002028010020F8B5074614460E4624
:1026800021B91146BDE8F840FFF79CBF22B9FFF71A
:102690004BFF25462846F8BD00F026F8A0420FD291
:1026A00021463846FFF78EFF05460028F2D0314616
:1026B0002246FFF715FF31463846FFF735FFE9E7B9
:1026C0003546E7E738B5064C002305460846236043
:1026D000FDF7A8FE431C02D1236803B12B6038BD6F
:1026E0002C0100207047704751F8043C181F002B44
:1026F000BCBF0B58C0187047537461636B2066727F
:10270000616D653A0A000000205230203D202025EE
:102710003038580A00000000205231203D2020258A
:102720003038580A00000000205232203D20202579
:102730003038580A00000000205233203D20202568
:102740003038580A0000000020523132203D202548
:102750003038580A00000000204C52203D2020252F
:102760003038580A00000000205043203D2020252A
:102770003038580A0000000020505352203D2025D8
:102780003038580A000000004653522F4641523A52
:102790000A0000002043465352203D2020253038B7
:1027A000580A00002048465352203D20202530384A
:1027B000580A00002044465352203D20202530383E
:1027C000580A00002041465352203D202025303831
:1027D000580A0000204D4D464152203D20253038FA
:1027E000580A00002042464152203D202025303822
:1027F000580A00004D6973630A000000204C522FF4
:102800004558435F52455455524E3D202530385867
:102810000A0000005B486172644661756C745D0A71
:10282000000000005B4275734661756C745D0A00C0
:102830005B55736167654661756C745D0A000000E5
:102840000000000000000000010203040607080960
:10285000232D302B2000686C4C0065666745464789
:10286000003031323334353637383941424344450C
:10287000460030313233343536373839616263647B
:032880006566008A
:102884007856341298000020000000000024F40060
:10289400000001000100000000000000000203002D
:1028A40004000000000000002C00002000000000D4
:1028B4000000000000000000000000000000000014
:1028C4000000000000000000000000000000000004
:1028D40000000000000000000000000000000000F4
:1028E40000000000000000000000000000000000E4
:1028F40000000000000000000000000000000000D4
:10290400000000000000000000000000325476982F
:040000050800019559
:00000001FF
